{
  "_format": "hh-sol-artifact-1",
  "contractName": "PredictionMarket",
  "sourceName": "contracts/PredictionMarket.sol",
  "abi": [
    {
      "anonymous": false,
      "inputs": [
        {
          "indexed": true,
          "internalType": "uint256",
          "name": "positionId",
          "type": "uint256"
        }
      ],
      "name": "PositionClosed",
      "type": "event"
    },
    {
      "anonymous": false,
      "inputs": [
        {
          "indexed": true,
          "internalType": "uint256",
          "name": "positionId",
          "type": "uint256"
        },
        {
          "indexed": false,
          "internalType": "string",
          "name": "countryId",
          "type": "string"
        },
        {
          "indexed": true,
          "internalType": "address",
          "name": "trader",
          "type": "address"
        },
        {
          "indexed": false,
          "internalType": "bool",
          "name": "direction",
          "type": "bool"
        },
        {
          "indexed": false,
          "internalType": "uint256",
          "name": "size",
          "type": "uint256"
        },
        {
          "indexed": false,
          "internalType": "uint8",
          "name": "leverage",
          "type": "uint8"
        },
        {
          "indexed": false,
          "internalType": "uint256",
          "name": "entryPrice",
          "type": "uint256"
        }
      ],
      "name": "PositionOpened",
      "type": "event"
    },
    {
      "anonymous": false,
      "inputs": [
        {
          "indexed": true,
          "internalType": "uint256",
          "name": "positionId",
          "type": "uint256"
        },
        {
          "indexed": false,
          "internalType": "uint256",
          "name": "takeProfit",
          "type": "uint256"
        },
        {
          "indexed": false,
          "internalType": "uint256",
          "name": "stopLoss",
          "type": "uint256"
        }
      ],
      "name": "TPSLSet",
      "type": "event"
    },
    {
      "inputs": [
        {
          "internalType": "uint256",
          "name": "positionId",
          "type": "uint256"
        }
      ],
      "name": "closePosition",
      "outputs": [],
      "stateMutability": "nonpayable",
      "type": "function"
    },
    {
      "inputs": [
        {
          "internalType": "uint256",
          "name": "positionId",
          "type": "uint256"
        }
      ],
      "name": "getPosition",
      "outputs": [
        {
          "components": [
            {
              "internalType": "uint256",
              "name": "positionId",
              "type": "uint256"
            },
            {
              "internalType": "string",
              "name": "countryId",
              "type": "string"
            },
            {
              "internalType": "address",
              "name": "trader",
              "type": "address"
            },
            {
              "internalType": "bool",
              "name": "direction",
              "type": "bool"
            },
            {
              "internalType": "uint256",
              "name": "size",
              "type": "uint256"
            },
            {
              "internalType": "uint8",
              "name": "leverage",
              "type": "uint8"
            },
            {
              "internalType": "uint256",
              "name": "entryPrice",
              "type": "uint256"
            },
            {
              "internalType": "uint256",
              "name": "openTime",
              "type": "uint256"
            },
            {
              "internalType": "uint256",
              "name": "takeProfit",
              "type": "uint256"
            },
            {
              "internalType": "uint256",
              "name": "stopLoss",
              "type": "uint256"
            },
            {
              "internalType": "bool",
              "name": "isOpen",
              "type": "bool"
            }
          ],
          "internalType": "struct PredictionMarket.Position",
          "name": "",
          "type": "tuple"
        }
      ],
      "stateMutability": "view",
      "type": "function"
    },
    {
      "inputs": [
        {
          "internalType": "string",
          "name": "countryId",
          "type": "string"
        },
        {
          "internalType": "bool",
          "name": "direction",
          "type": "bool"
        },
        {
          "internalType": "uint8",
          "name": "leverage",
          "type": "uint8"
        }
      ],
      "name": "openPosition",
      "outputs": [
        {
          "internalType": "uint256",
          "name": "",
          "type": "uint256"
        }
      ],
      "stateMutability": "payable",
      "type": "function"
    },
    {
      "inputs": [
        {
          "internalType": "uint256",
          "name": "",
          "type": "uint256"
        }
      ],
      "name": "positions",
      "outputs": [
        {
          "internalType": "uint256",
          "name": "positionId",
          "type": "uint256"
        },
        {
          "internalType": "string",
          "name": "countryId",
          "type": "string"
        },
        {
          "internalType": "address",
          "name": "trader",
          "type": "address"
        },
        {
          "internalType": "bool",
          "name": "direction",
          "type": "bool"
        },
        {
          "internalType": "uint256",
          "name": "size",
          "type": "uint256"
        },
        {
          "internalType": "uint8",
          "name": "leverage",
          "type": "uint8"
        },
        {
          "internalType": "uint256",
          "name": "entryPrice",
          "type": "uint256"
        },
        {
          "internalType": "uint256",
          "name": "openTime",
          "type": "uint256"
        },
        {
          "internalType": "uint256",
          "name": "takeProfit",
          "type": "uint256"
        },
        {
          "internalType": "uint256",
          "name": "stopLoss",
          "type": "uint256"
        },
        {
          "internalType": "bool",
          "name": "isOpen",
          "type": "bool"
        }
      ],
      "stateMutability": "view",
      "type": "function"
    },
    {
      "inputs": [
        {
          "internalType": "uint256",
          "name": "positionId",
          "type": "uint256"
        },
        {
          "internalType": "uint256",
          "name": "takeProfit",
          "type": "uint256"
        },
        {
          "internalType": "uint256",
          "name": "stopLoss",
          "type": "uint256"
        }
      ],
      "name": "setTPSL",
      "outputs": [],
      "stateMutability": "nonpayable",
      "type": "function"
    }
  ],
  "bytecode": "0x608060405234801561001057600080fd5b50610ca7806100206000396000f3fe60806040526004361061004a5760003560e01c806333e765381461004f57806399fbab8814610075578063a126d601146100ac578063ad2968bc146100ce578063eb02c301146100ee575b600080fd5b61006261005d366004610844565b61011b565b6040519081526020015b60405180910390f35b34801561008157600080fd5b506100956100903660046108e3565b61039f565b60405161006c9b9a99989796959493929190610942565b3480156100b857600080fd5b506100cc6100c73660046108e3565b610493565b005b3480156100da57600080fd5b506100cc6100e93660046109b2565b6105b2565b3480156100fa57600080fd5b5061010e6101093660046108e3565b6106a6565b60405161006c91906109de565b600080341161017d5760405162461bcd60e51b8152602060048201526024808201527f4d617267696e20616d6f756e74206d75737420626520677265617465722074686044820152630616e20360e41b60648201526084015b60405180910390fd5b60018260ff1610158015610195575060058260ff1611155b6101e15760405162461bcd60e51b815260206004820152601d60248201527f4c65766572616765206d757374206265206265747765656e20312d35780000006044820152606401610174565b6000805481806101f083610a99565b91905055905060405180610160016040528082815260200187878080601f016020809104026020016040519081016040528093929190818152602001838380828437600092018290525093855250503360208085019190915288151560408086019190915234606086015260ff89166080860152606460a08601524360c086015260e0850184905261010085018490526001610120909501859052868452848252909220845181559184015191928301916102ac915082610b61565b5060408281015160028301805460608601511515600160a01b026001600160a81b03199091166001600160a01b03909316929092179190911790556080830151600383015560a083015160048301805460ff9290921660ff1992831617905560c0840151600584015560e08401516006840155610100840151600784015561012084015160088401556101409093015160099092018054921515929093169190911790915551339082907fa7ac781f15111a599c83f0f0525d0da9a711925f54d648fb5c020fc457600bab9061038e908a908a908a9034908b90606490610c21565b60405180910390a395945050505050565b6001602081905260009182526040909120805491810180546103c090610ad6565b80601f01602080910402602001604051908101604052809291908181526020018280546103ec90610ad6565b80156104395780601f1061040e57610100808354040283529160200191610439565b820191906000526020600020905b81548152906001019060200180831161041c57829003601f168201915b50505060028401546003850154600486015460058701546006880154600789015460088a01546009909a015498996001600160a01b0387169960ff600160a01b90980488169950959750938616959294919390929091168b565b6000818152600160205260409020600981015460ff166104f55760405162461bcd60e51b815260206004820152601760248201527f506f736974696f6e20616c726561647920636c6f7365640000000000000000006044820152606401610174565b60028101546001600160a01b031633146105465760405162461bcd60e51b81526020600482015260126024820152712737ba103837b9b4ba34b7b71037bbb732b960711b6044820152606401610174565b60098101805460ff191690556003810154604051339180156108fc02916000818181858888f19350505050158015610582573d6000803e3d6000fd5b5060405182907fbf542298705ed6fd22ddf94ee2db731ced9191396e6e7f7b6862803555f9ff2190600090a25050565b6000838152600160205260409020600981015460ff166106065760405162461bcd60e51b815260206004820152600f60248201526e141bdcda5d1a5bdb8818db1bdcd959608a1b6044820152606401610174565b60028101546001600160a01b031633146106575760405162461bcd60e51b81526020600482015260126024820152712737ba103837b9b4ba34b7b71037bbb732b960711b6044820152606401610174565b6007810183905560088101829055604080518481526020810184905285917f13cca31eaaf17edd06969adb3a0e582a15ef622d88eae20bbf2fcd58ebb768c6910160405180910390a250505050565b610713604051806101600160405280600081526020016060815260200160006001600160a01b0316815260200160001515815260200160008152602001600060ff168152602001600081526020016000815260200160008152602001600081526020016000151581525090565b600082815260016020818152604092839020835161016081019094528054845291820180549184019161074590610ad6565b80601f016020809104026020016040519081016040528092919081815260200182805461077190610ad6565b80156107be5780601f10610793576101008083540402835291602001916107be565b820191906000526020600020905b8154815290600101906020018083116107a157829003601f168201915b505050918352505060028201546001600160a01b038116602083015260ff600160a01b90910481161515604083015260038301546060830152600483015481166080830152600583015460a0830152600683015460c0830152600783015460e0830152600883015461010083015260099092015490911615156101209091015292915050565b6000806000806060858703121561085a57600080fd5b843567ffffffffffffffff8082111561087257600080fd5b818701915087601f83011261088657600080fd5b81358181111561089557600080fd5b8860208285010111156108a757600080fd5b6020928301965094505085013580151581146108c257600080fd5b9150604085013560ff811681146108d857600080fd5b939692955090935050565b6000602082840312156108f557600080fd5b5035919050565b6000815180845260005b8181101561092257602081850181015186830182015201610906565b506000602082860101526020601f19601f83011685010191505092915050565b60006101608d835280602084015261095c8184018e6108fc565b6001600160a01b039c909c16604084015250509715156060890152608088019690965260ff9490941660a087015260c086019290925260e085015261010084015261012083015215156101409091015292915050565b6000806000606084860312156109c757600080fd5b505081359360208301359350604090920135919050565b602081528151602082015260006020830151610160806040850152610a076101808501836108fc565b91506040850151610a2360608601826001600160a01b03169052565b506060850151801515608086015250608085015160a085015260a0850151610a5060c086018260ff169052565b5060c085015160e0858101919091528501516101008086019190915285015161012080860191909152850151610140808601919091529094015115159390920192909252919050565b600060018201610ab957634e487b7160e01b600052601160045260246000fd5b5060010190565b634e487b7160e01b600052604160045260246000fd5b600181811c90821680610aea57607f821691505b602082108103610b0a57634e487b7160e01b600052602260045260246000fd5b50919050565b601f821115610b5c576000816000526020600020601f850160051c81016020861015610b395750805b601f850160051c820191505b81811015610b5857828155600101610b45565b5050505b505050565b815167ffffffffffffffff811115610b7b57610b7b610ac0565b610b8f81610b898454610ad6565b84610b10565b602080601f831160018114610bc45760008415610bac5750858301515b600019600386901b1c1916600185901b178555610b58565b600085815260208120601f198616915b82811015610bf357888601518255948401946001909101908401610bd4565b5085821015610c115787850151600019600388901b60f8161c191681555b5050505050600190811b01905550565b60a081528560a0820152858760c0830137600060c08783018101919091529415156020820152604081019390935260ff9190911660608301526080820152601f909201601f19169091010191905056fea264697066735822122010883c858affd497f8799a2109093b1ffafb1cfc345b51874131dbfa0c5a741064736f6c63430008180033",
  "linkReferences": {},
  "deployedLinkReferences": {}
}